{
  "_format": "hh-sol-artifact-1",
  "contractName": "SmartFidget",
  "sourceName": "contracts/SmartFidget.sol",
  "abi": [
    {
      "inputs": [],
      "stateMutability": "nonpayable",
      "type": "constructor"
    },
    {
      "anonymous": false,
      "inputs": [
        {
          "indexed": true,
          "internalType": "address",
          "name": "user",
          "type": "address"
        },
        {
          "indexed": false,
          "internalType": "string",
          "name": "date",
          "type": "string"
        },
        {
          "indexed": false,
          "internalType": "string",
          "name": "ipfsHash",
          "type": "string"
        },
        {
          "indexed": false,
          "internalType": "string",
          "name": "encryptionKey",
          "type": "string"
        }
      ],
      "name": "RecordAdded",
      "type": "event"
    },
    {
      "inputs": [
        {
          "internalType": "string",
          "name": "_date",
          "type": "string"
        },
        {
          "internalType": "string",
          "name": "_ipfsHash",
          "type": "string"
        },
        {
          "internalType": "string",
          "name": "_encryptionKey",
          "type": "string"
        }
      ],
      "name": "addRecord",
      "outputs": [],
      "stateMutability": "nonpayable",
      "type": "function"
    },
    {
      "inputs": [
        {
          "internalType": "address",
          "name": "_user",
          "type": "address"
        },
        {
          "internalType": "string",
          "name": "_date",
          "type": "string"
        }
      ],
      "name": "getEncryptionKey",
      "outputs": [
        {
          "internalType": "string",
          "name": "",
          "type": "string"
        }
      ],
      "stateMutability": "view",
      "type": "function"
    },
    {
      "inputs": [
        {
          "internalType": "address",
          "name": "_user",
          "type": "address"
        },
        {
          "internalType": "string",
          "name": "_date",
          "type": "string"
        }
      ],
      "name": "getIPFSHash",
      "outputs": [
        {
          "internalType": "string",
          "name": "",
          "type": "string"
        }
      ],
      "stateMutability": "view",
      "type": "function"
    },
    {
      "inputs": [],
      "name": "getMyDates",
      "outputs": [
        {
          "internalType": "string[]",
          "name": "",
          "type": "string[]"
        }
      ],
      "stateMutability": "view",
      "type": "function"
    },
    {
      "inputs": [
        {
          "internalType": "string",
          "name": "_date",
          "type": "string"
        }
      ],
      "name": "getMyEncryptionKey",
      "outputs": [
        {
          "internalType": "string",
          "name": "",
          "type": "string"
        }
      ],
      "stateMutability": "view",
      "type": "function"
    },
    {
      "inputs": [
        {
          "internalType": "string",
          "name": "_date",
          "type": "string"
        }
      ],
      "name": "getMyIPFSHash",
      "outputs": [
        {
          "internalType": "string",
          "name": "",
          "type": "string"
        }
      ],
      "stateMutability": "view",
      "type": "function"
    },
    {
      "inputs": [
        {
          "internalType": "address",
          "name": "_user",
          "type": "address"
        }
      ],
      "name": "getUserDates",
      "outputs": [
        {
          "internalType": "string[]",
          "name": "",
          "type": "string[]"
        }
      ],
      "stateMutability": "view",
      "type": "function"
    },
    {
      "inputs": [
        {
          "internalType": "address",
          "name": "_user",
          "type": "address"
        }
      ],
      "name": "getUserDatesCount",
      "outputs": [
        {
          "internalType": "uint256",
          "name": "",
          "type": "uint256"
        }
      ],
      "stateMutability": "view",
      "type": "function"
    },
    {
      "inputs": [],
      "name": "owner",
      "outputs": [
        {
          "internalType": "address",
          "name": "",
          "type": "address"
        }
      ],
      "stateMutability": "view",
      "type": "function"
    },
    {
      "inputs": [
        {
          "internalType": "address",
          "name": "",
          "type": "address"
        },
        {
          "internalType": "string",
          "name": "",
          "type": "string"
        }
      ],
      "name": "userDateToEncryptionKey",
      "outputs": [
        {
          "internalType": "string",
          "name": "",
          "type": "string"
        }
      ],
      "stateMutability": "view",
      "type": "function"
    },
    {
      "inputs": [
        {
          "internalType": "address",
          "name": "",
          "type": "address"
        },
        {
          "internalType": "string",
          "name": "",
          "type": "string"
        }
      ],
      "name": "userDateToIPFS",
      "outputs": [
        {
          "internalType": "string",
          "name": "",
          "type": "string"
        }
      ],
      "stateMutability": "view",
      "type": "function"
    }
  ],
  "bytecode": "0x60a080604052346100235733608052610a1890816100298239608051816101700152f35b600080fdfe608060409080825260048036101561001657600080fd5b600091823560e01c908163054d6b6414610604575080630f5ad7851461019f578063132c960e146102a05780633f723c62146103d8578063499818b41461037b5780634ee8b5bf146102e75780637a5c7175146102a057806383ecda66146102125780638cde6f7d1461019f5780638da5cb5b1461015b5763e271f84c1461009d57600080fd5b346101575760209182600319360112610154576001600160a01b036100c0610638565b168152600283528381209283549267ffffffffffffffff84116101415750845193916100f2600585901b830186610653565b8385529182528082208185015b84841061011757865180610113888261083d565b0390f35b600183819289516101338161012c81896107a7565b0382610653565b8152019201930192906100ff565b634e487b7160e01b835260419052602482fd5b80fd5b5080fd5b828434610157578160031936011261015757517f00000000000000000000000000000000000000000000000000000000000000006001600160a01b03168152602090f35b82843461015757806102006101e56020610113956101f9956101c0366106e2565b6001600160a01b03909116835282845291208551825190948593829085908701610725565b8201908152030190208251938480926107a7565b0383610653565b51918291602083526020830190610748565b503461015757816003193601126101575733825260209160026020528381209283549267ffffffffffffffff841161014157508451939161025a600585901b60200186610653565b83855291825260208083209085015b84841061027d57865180610113888261083d565b600183819289516102928161012c81896107a7565b815201920193019290610269565b82843461015757806102006101e56020610113956101f9956102c1366106e2565b6001600160a01b0390911683526001845291208551825190948593829085908701610725565b508234610377576020918260031936011261037357803567ffffffffffffffff811161036f5761034584610359968561032a61011397966103609636910161068b565b91338152600184522082865194838680955193849201610725565b8201908152030190208251958680926107a7565b0385610653565b51928284938452830190610748565b8480fd5b8380fd5b8280fd5b508234610377576020918260031936011261037357803567ffffffffffffffff811161036f576103458461035996856103be61011397966103609636910161068b565b913381528084522082865194838680955193849201610725565b508290346103775760603660031901126103775767ffffffffffffffff91813583811161036f5761040c903690840161068b565b9160243584811161060057610424903690830161068b565b936044359081116106005761043c903690830161068b565b9333865260209186835283872061047183865186818a5195828c019661046381848a610725565b8201908152030190206108a1565b338852600180855261049288878b2087895180928c5161046381848b610725565b889182825b6105a8575b50505015610509575b50826104f47f4173845d038f43d42fe1ac8689f7d3e5cec8a2b2f643897e8a472f0ca3efebb89593610503936104e79651968796606088526060880190610748565b9186830390870152610748565b90838203908401523395610748565b0390a280f35b33875260028352838720805490680100000000000000008210156105955790610537916001820181556109b4565b9190916105835750926104f48593610503936105777f4173845d038f43d42fe1ac8689f7d3e5cec8a2b2f643897e8a472f0ca3efebb8986104e7986108a1565b935093955050926104a5565b634e487b7160e01b8852879052602487fd5b634e487b7160e01b895260418352602489fd5b338b5260028752878b2080548210156105fa576105d76105cb8361012c936109b4565b508a51928380926107a7565b87815191012089518320146105ee57820182610497565b5050905088808061049c565b5061049c565b8580fd5b83908534610377576020366003190112610377576020926001600160a01b0361062b610638565b1681526002845220548152f35b600435906001600160a01b038216820361064e57565b600080fd5b90601f8019910116810190811067ffffffffffffffff82111761067557604052565b634e487b7160e01b600052604160045260246000fd5b81601f8201121561064e5780359067ffffffffffffffff821161067557604051926106c0601f8401601f191660200185610653565b8284526020838301011161064e57816000926020809301838601378301015290565b90604060031983011261064e576004356001600160a01b038116810361064e57916024359067ffffffffffffffff821161064e576107229160040161068b565b90565b60005b8381106107385750506000910152565b8181015183820152602001610728565b9060209161076181518092818552858086019101610725565b601f01601f1916010190565b90600182811c9216801561079d575b602083101461078757565b634e487b7160e01b600052602260045260246000fd5b91607f169161077c565b8054600093926107b68261076d565b9182825260209360019160018116908160001461081e57506001146107dd575b5050505050565b90939495506000929192528360002092846000945b83861061080a575050505001019038808080806107d6565b8054858701830152940193859082016107f2565b60ff19168685015250505090151560051b0101915038808080806107d6565b6020808201906020835283518092526040830192602060408460051b8301019501936000915b8483106108735750505050505090565b9091929394958480610891600193603f198682030187528a51610748565b9801930193019194939290610863565b919091825167ffffffffffffffff8111610675576108bf825461076d565b601f811161096a575b50602080601f83116001146109055750819293946000926108fa575b50508160011b916000199060031b1c1916179055565b0151905038806108e4565b90601f19831695846000526020600020926000905b88821061095257505083600195969710610939575b505050811b019055565b015160001960f88460031b161c1916905538808061092f565b8060018596829496860151815501950193019061091a565b6000836000526020600020601f840160051c810192602085106109aa575b601f0160051c01915b82811061099f5750506108c8565b818155600101610991565b9092508290610988565b80548210156109cc5760005260206000200190600090565b634e487b7160e01b600052603260045260246000fdfea2646970667358221220c84e4b6ada3b46314fc84e25f45a38e8a93b438afe06a8bdc3b421dd59ec1b8c64736f6c63430008180033",
  "linkReferences": {},
  "deployedLinkReferences": {}
}