{"contracts/SmartFidget.sol":{"SmartFidget":{"abi":[{"inputs":[],"stateMutability":"nonpayable","type":"constructor"},{"anonymous":false,"inputs":[{"indexed":true,"internalType":"address","name":"user","type":"address"},{"indexed":false,"internalType":"string","name":"date","type":"string"},{"indexed":false,"internalType":"string","name":"ipfsHash","type":"string"},{"indexed":false,"internalType":"string","name":"encryptionKey","type":"string"}],"name":"RecordAdded","type":"event"},{"inputs":[{"internalType":"string","name":"_date","type":"string"},{"internalType":"string","name":"_ipfsHash","type":"string"},{"internalType":"string","name":"_encryptionKey","type":"string"}],"name":"addRecord","outputs":[],"stateMutability":"nonpayable","type":"function"},{"inputs":[{"internalType":"address","name":"_user","type":"address"},{"internalType":"string","name":"_date","type":"string"}],"name":"getEncryptionKey","outputs":[{"internalType":"string","name":"","type":"string"}],"stateMutability":"view","type":"function"},{"inputs":[{"internalType":"address","name":"_user","type":"address"},{"internalType":"string","name":"_date","type":"string"}],"name":"getIPFSHash","outputs":[{"internalType":"string","name":"","type":"string"}],"stateMutability":"view","type":"function"},{"inputs":[],"name":"getMyDates","outputs":[{"internalType":"string[]","name":"","type":"string[]"}],"stateMutability":"view","type":"function"},{"inputs":[{"internalType":"string","name":"_date","type":"string"}],"name":"getMyEncryptionKey","outputs":[{"internalType":"string","name":"","type":"string"}],"stateMutability":"view","type":"function"},{"inputs":[{"internalType":"string","name":"_date","type":"string"}],"name":"getMyIPFSHash","outputs":[{"internalType":"string","name":"","type":"string"}],"stateMutability":"view","type":"function"},{"inputs":[{"internalType":"address","name":"_user","type":"address"}],"name":"getUserDates","outputs":[{"internalType":"string[]","name":"","type":"string[]"}],"stateMutability":"view","type":"function"},{"inputs":[{"internalType":"address","name":"_user","type":"address"}],"name":"getUserDatesCount","outputs":[{"internalType":"uint256","name":"","type":"uint256"}],"stateMutability":"view","type":"function"},{"inputs":[],"name":"owner","outputs":[{"internalType":"address","name":"","type":"address"}],"stateMutability":"view","type":"function"},{"inputs":[{"internalType":"address","name":"","type":"address"},{"internalType":"string","name":"","type":"string"}],"name":"userDateToEncryptionKey","outputs":[{"internalType":"string","name":"","type":"string"}],"stateMutability":"view","type":"function"},{"inputs":[{"internalType":"address","name":"","type":"address"},{"internalType":"string","name":"","type":"string"}],"name":"userDateToIPFS","outputs":[{"internalType":"string","name":"","type":"string"}],"stateMutability":"view","type":"function"}],"evm":{"bytecode":{"linkReferences":{},"object":"60a080604052346100235733608052610a1890816100298239608051816101700152f35b600080fdfe608060409080825260048036101561001657600080fd5b600091823560e01c908163054d6b6414610604575080630f5ad7851461019f578063132c960e146102a05780633f723c62146103d8578063499818b41461037b5780634ee8b5bf146102e75780637a5c7175146102a057806383ecda66146102125780638cde6f7d1461019f5780638da5cb5b1461015b5763e271f84c1461009d57600080fd5b346101575760209182600319360112610154576001600160a01b036100c0610638565b168152600283528381209283549267ffffffffffffffff84116101415750845193916100f2600585901b830186610653565b8385529182528082208185015b84841061011757865180610113888261083d565b0390f35b600183819289516101338161012c81896107a7565b0382610653565b8152019201930192906100ff565b634e487b7160e01b835260419052602482fd5b80fd5b5080fd5b828434610157578160031936011261015757517f00000000000000000000000000000000000000000000000000000000000000006001600160a01b03168152602090f35b82843461015757806102006101e56020610113956101f9956101c0366106e2565b6001600160a01b03909116835282845291208551825190948593829085908701610725565b8201908152030190208251938480926107a7565b0383610653565b51918291602083526020830190610748565b503461015757816003193601126101575733825260209160026020528381209283549267ffffffffffffffff841161014157508451939161025a600585901b60200186610653565b83855291825260208083209085015b84841061027d57865180610113888261083d565b600183819289516102928161012c81896107a7565b815201920193019290610269565b82843461015757806102006101e56020610113956101f9956102c1366106e2565b6001600160a01b0390911683526001845291208551825190948593829085908701610725565b508234610377576020918260031936011261037357803567ffffffffffffffff811161036f5761034584610359968561032a61011397966103609636910161068b565b91338152600184522082865194838680955193849201610725565b8201908152030190208251958680926107a7565b0385610653565b51928284938452830190610748565b8480fd5b8380fd5b8280fd5b508234610377576020918260031936011261037357803567ffffffffffffffff811161036f576103458461035996856103be61011397966103609636910161068b565b913381528084522082865194838680955193849201610725565b508290346103775760603660031901126103775767ffffffffffffffff91813583811161036f5761040c903690840161068b565b9160243584811161060057610424903690830161068b565b936044359081116106005761043c903690830161068b565b9333865260209186835283872061047183865186818a5195828c019661046381848a610725565b8201908152030190206108a1565b338852600180855261049288878b2087895180928c5161046381848b610725565b889182825b6105a8575b50505015610509575b50826104f47f4173845d038f43d42fe1ac8689f7d3e5cec8a2b2f643897e8a472f0ca3efebb89593610503936104e79651968796606088526060880190610748565b9186830390870152610748565b90838203908401523395610748565b0390a280f35b33875260028352838720805490680100000000000000008210156105955790610537916001820181556109b4565b9190916105835750926104f48593610503936105777f4173845d038f43d42fe1ac8689f7d3e5cec8a2b2f643897e8a472f0ca3efebb8986104e7986108a1565b935093955050926104a5565b634e487b7160e01b8852879052602487fd5b634e487b7160e01b895260418352602489fd5b338b5260028752878b2080548210156105fa576105d76105cb8361012c936109b4565b508a51928380926107a7565b87815191012089518320146105ee57820182610497565b5050905088808061049c565b5061049c565b8580fd5b83908534610377576020366003190112610377576020926001600160a01b0361062b610638565b1681526002845220548152f35b600435906001600160a01b038216820361064e57565b600080fd5b90601f8019910116810190811067ffffffffffffffff82111761067557604052565b634e487b7160e01b600052604160045260246000fd5b81601f8201121561064e5780359067ffffffffffffffff821161067557604051926106c0601f8401601f191660200185610653565b8284526020838301011161064e57816000926020809301838601378301015290565b90604060031983011261064e576004356001600160a01b038116810361064e57916024359067ffffffffffffffff821161064e576107229160040161068b565b90565b60005b8381106107385750506000910152565b8181015183820152602001610728565b9060209161076181518092818552858086019101610725565b601f01601f1916010190565b90600182811c9216801561079d575b602083101461078757565b634e487b7160e01b600052602260045260246000fd5b91607f169161077c565b8054600093926107b68261076d565b9182825260209360019160018116908160001461081e57506001146107dd575b5050505050565b90939495506000929192528360002092846000945b83861061080a575050505001019038808080806107d6565b8054858701830152940193859082016107f2565b60ff19168685015250505090151560051b0101915038808080806107d6565b6020808201906020835283518092526040830192602060408460051b8301019501936000915b8483106108735750505050505090565b9091929394958480610891600193603f198682030187528a51610748565b9801930193019194939290610863565b919091825167ffffffffffffffff8111610675576108bf825461076d565b601f811161096a575b50602080601f83116001146109055750819293946000926108fa575b50508160011b916000199060031b1c1916179055565b0151905038806108e4565b90601f19831695846000526020600020926000905b88821061095257505083600195969710610939575b505050811b019055565b015160001960f88460031b161c1916905538808061092f565b8060018596829496860151815501950193019061091a565b6000836000526020600020601f840160051c810192602085106109aa575b601f0160051c01915b82811061099f5750506108c8565b818155600101610991565b9092508290610988565b80548210156109cc5760005260206000200190600090565b634e487b7160e01b600052603260045260246000fdfea2646970667358221220c84e4b6ada3b46314fc84e25f45a38e8a93b438afe06a8bdc3b421dd59ec1b8c64736f6c63430008180033","opcodes":"PUSH1 0xA0 DUP1 PUSH1 0x40 MSTORE CALLVALUE PUSH2 0x23 JUMPI CALLER PUSH1 0x80 MSTORE PUSH2 0xA18 SWAP1 DUP2 PUSH2 0x29 DUP3 CODECOPY PUSH1 0x80 MLOAD DUP2 PUSH2 0x170 ADD MSTORE RETURN JUMPDEST PUSH1 0x0 DUP1 REVERT INVALID PUSH1 0x80 PUSH1 0x40 SWAP1 DUP1 DUP3 MSTORE PUSH1 0x4 DUP1 CALLDATASIZE LT ISZERO PUSH2 0x16 JUMPI PUSH1 0x0 DUP1 REVERT JUMPDEST PUSH1 0x0 SWAP2 DUP3 CALLDATALOAD PUSH1 0xE0 SHR SWAP1 DUP2 PUSH4 0x54D6B64 EQ PUSH2 0x604 JUMPI POP DUP1 PUSH4 0xF5AD785 EQ PUSH2 0x19F JUMPI DUP1 PUSH4 0x132C960E EQ PUSH2 0x2A0 JUMPI DUP1 PUSH4 0x3F723C62 EQ PUSH2 0x3D8 JUMPI DUP1 PUSH4 0x499818B4 EQ PUSH2 0x37B JUMPI DUP1 PUSH4 0x4EE8B5BF EQ PUSH2 0x2E7 JUMPI DUP1 PUSH4 0x7A5C7175 EQ PUSH2 0x2A0 JUMPI DUP1 PUSH4 0x83ECDA66 EQ PUSH2 0x212 JUMPI DUP1 PUSH4 0x8CDE6F7D EQ PUSH2 0x19F JUMPI DUP1 PUSH4 0x8DA5CB5B EQ PUSH2 0x15B JUMPI PUSH4 0xE271F84C EQ PUSH2 0x9D JUMPI PUSH1 0x0 DUP1 REVERT JUMPDEST CALLVALUE PUSH2 0x157 JUMPI PUSH1 0x20 SWAP2 DUP3 PUSH1 0x3 NOT CALLDATASIZE ADD SLT PUSH2 0x154 JUMPI PUSH1 0x1 PUSH1 0x1 PUSH1 0xA0 SHL SUB PUSH2 0xC0 PUSH2 0x638 JUMP JUMPDEST AND DUP2 MSTORE PUSH1 0x2 DUP4 MSTORE DUP4 DUP2 KECCAK256 SWAP3 DUP4 SLOAD SWAP3 PUSH8 0xFFFFFFFFFFFFFFFF DUP5 GT PUSH2 0x141 JUMPI POP DUP5 MLOAD SWAP4 SWAP2 PUSH2 0xF2 PUSH1 0x5 DUP6 SWAP1 SHL DUP4 ADD DUP7 PUSH2 0x653 JUMP JUMPDEST DUP4 DUP6 MSTORE SWAP2 DUP3 MSTORE DUP1 DUP3 KECCAK256 DUP2 DUP6 ADD JUMPDEST DUP5 DUP5 LT PUSH2 0x117 JUMPI DUP7 MLOAD DUP1 PUSH2 0x113 DUP9 DUP3 PUSH2 0x83D JUMP JUMPDEST SUB SWAP1 RETURN JUMPDEST PUSH1 0x1 DUP4 DUP2 SWAP3 DUP10 MLOAD PUSH2 0x133 DUP2 PUSH2 0x12C DUP2 DUP10 PUSH2 0x7A7 JUMP JUMPDEST SUB DUP3 PUSH2 0x653 JUMP JUMPDEST DUP2 MSTORE ADD SWAP3 ADD SWAP4 ADD SWAP3 SWAP1 PUSH2 0xFF JUMP JUMPDEST PUSH4 0x4E487B71 PUSH1 0xE0 SHL DUP4 MSTORE PUSH1 0x41 SWAP1 MSTORE PUSH1 0x24 DUP3 REVERT JUMPDEST DUP1 REVERT JUMPDEST POP DUP1 REVERT JUMPDEST DUP3 DUP5 CALLVALUE PUSH2 0x157 JUMPI DUP2 PUSH1 0x3 NOT CALLDATASIZE ADD SLT PUSH2 0x157 JUMPI MLOAD PUSH32 0x0 PUSH1 0x1 PUSH1 0x1 PUSH1 0xA0 SHL SUB AND DUP2 MSTORE PUSH1 0x20 SWAP1 RETURN JUMPDEST DUP3 DUP5 CALLVALUE PUSH2 0x157 JUMPI DUP1 PUSH2 0x200 PUSH2 0x1E5 PUSH1 0x20 PUSH2 0x113 SWAP6 PUSH2 0x1F9 SWAP6 PUSH2 0x1C0 CALLDATASIZE PUSH2 0x6E2 JUMP JUMPDEST PUSH1 0x1 PUSH1 0x1 PUSH1 0xA0 SHL SUB SWAP1 SWAP2 AND DUP4 MSTORE DUP3 DUP5 MSTORE SWAP2 KECCAK256 DUP6 MLOAD DUP3 MLOAD SWAP1 SWAP5 DUP6 SWAP4 DUP3 SWAP1 DUP6 SWAP1 DUP8 ADD PUSH2 0x725 JUMP JUMPDEST DUP3 ADD SWAP1 DUP2 MSTORE SUB ADD SWAP1 KECCAK256 DUP3 MLOAD SWAP4 DUP5 DUP1 SWAP3 PUSH2 0x7A7 JUMP JUMPDEST SUB DUP4 PUSH2 0x653 JUMP JUMPDEST MLOAD SWAP2 DUP3 SWAP2 PUSH1 0x20 DUP4 MSTORE PUSH1 0x20 DUP4 ADD SWAP1 PUSH2 0x748 JUMP JUMPDEST POP CALLVALUE PUSH2 0x157 JUMPI DUP2 PUSH1 0x3 NOT CALLDATASIZE ADD SLT PUSH2 0x157 JUMPI CALLER DUP3 MSTORE PUSH1 0x20 SWAP2 PUSH1 0x2 PUSH1 0x20 MSTORE DUP4 DUP2 KECCAK256 SWAP3 DUP4 SLOAD SWAP3 PUSH8 0xFFFFFFFFFFFFFFFF DUP5 GT PUSH2 0x141 JUMPI POP DUP5 MLOAD SWAP4 SWAP2 PUSH2 0x25A PUSH1 0x5 DUP6 SWAP1 SHL PUSH1 0x20 ADD DUP7 PUSH2 0x653 JUMP JUMPDEST DUP4 DUP6 MSTORE SWAP2 DUP3 MSTORE PUSH1 0x20 DUP1 DUP4 KECCAK256 SWAP1 DUP6 ADD JUMPDEST DUP5 DUP5 LT PUSH2 0x27D JUMPI DUP7 MLOAD DUP1 PUSH2 0x113 DUP9 DUP3 PUSH2 0x83D JUMP JUMPDEST PUSH1 0x1 DUP4 DUP2 SWAP3 DUP10 MLOAD PUSH2 0x292 DUP2 PUSH2 0x12C DUP2 DUP10 PUSH2 0x7A7 JUMP JUMPDEST DUP2 MSTORE ADD SWAP3 ADD SWAP4 ADD SWAP3 SWAP1 PUSH2 0x269 JUMP JUMPDEST DUP3 DUP5 CALLVALUE PUSH2 0x157 JUMPI DUP1 PUSH2 0x200 PUSH2 0x1E5 PUSH1 0x20 PUSH2 0x113 SWAP6 PUSH2 0x1F9 SWAP6 PUSH2 0x2C1 CALLDATASIZE PUSH2 0x6E2 JUMP JUMPDEST PUSH1 0x1 PUSH1 0x1 PUSH1 0xA0 SHL SUB SWAP1 SWAP2 AND DUP4 MSTORE PUSH1 0x1 DUP5 MSTORE SWAP2 KECCAK256 DUP6 MLOAD DUP3 MLOAD SWAP1 SWAP5 DUP6 SWAP4 DUP3 SWAP1 DUP6 SWAP1 DUP8 ADD PUSH2 0x725 JUMP JUMPDEST POP DUP3 CALLVALUE PUSH2 0x377 JUMPI PUSH1 0x20 SWAP2 DUP3 PUSH1 0x3 NOT CALLDATASIZE ADD SLT PUSH2 0x373 JUMPI DUP1 CALLDATALOAD PUSH8 0xFFFFFFFFFFFFFFFF DUP2 GT PUSH2 0x36F JUMPI PUSH2 0x345 DUP5 PUSH2 0x359 SWAP7 DUP6 PUSH2 0x32A PUSH2 0x113 SWAP8 SWAP7 PUSH2 0x360 SWAP7 CALLDATASIZE SWAP2 ADD PUSH2 0x68B JUMP JUMPDEST SWAP2 CALLER DUP2 MSTORE PUSH1 0x1 DUP5 MSTORE KECCAK256 DUP3 DUP7 MLOAD SWAP5 DUP4 DUP7 DUP1 SWAP6 MLOAD SWAP4 DUP5 SWAP3 ADD PUSH2 0x725 JUMP JUMPDEST DUP3 ADD SWAP1 DUP2 MSTORE SUB ADD SWAP1 KECCAK256 DUP3 MLOAD SWAP6 DUP7 DUP1 SWAP3 PUSH2 0x7A7 JUMP JUMPDEST SUB DUP6 PUSH2 0x653 JUMP JUMPDEST MLOAD SWAP3 DUP3 DUP5 SWAP4 DUP5 MSTORE DUP4 ADD SWAP1 PUSH2 0x748 JUMP JUMPDEST DUP5 DUP1 REVERT JUMPDEST DUP4 DUP1 REVERT JUMPDEST DUP3 DUP1 REVERT JUMPDEST POP DUP3 CALLVALUE PUSH2 0x377 JUMPI PUSH1 0x20 SWAP2 DUP3 PUSH1 0x3 NOT CALLDATASIZE ADD SLT PUSH2 0x373 JUMPI DUP1 CALLDATALOAD PUSH8 0xFFFFFFFFFFFFFFFF DUP2 GT PUSH2 0x36F JUMPI PUSH2 0x345 DUP5 PUSH2 0x359 SWAP7 DUP6 PUSH2 0x3BE PUSH2 0x113 SWAP8 SWAP7 PUSH2 0x360 SWAP7 CALLDATASIZE SWAP2 ADD PUSH2 0x68B JUMP JUMPDEST SWAP2 CALLER DUP2 MSTORE DUP1 DUP5 MSTORE KECCAK256 DUP3 DUP7 MLOAD SWAP5 DUP4 DUP7 DUP1 SWAP6 MLOAD SWAP4 DUP5 SWAP3 ADD PUSH2 0x725 JUMP JUMPDEST POP DUP3 SWAP1 CALLVALUE PUSH2 0x377 JUMPI PUSH1 0x60 CALLDATASIZE PUSH1 0x3 NOT ADD SLT PUSH2 0x377 JUMPI PUSH8 0xFFFFFFFFFFFFFFFF SWAP2 DUP2 CALLDATALOAD DUP4 DUP2 GT PUSH2 0x36F JUMPI PUSH2 0x40C SWAP1 CALLDATASIZE SWAP1 DUP5 ADD PUSH2 0x68B JUMP JUMPDEST SWAP2 PUSH1 0x24 CALLDATALOAD DUP5 DUP2 GT PUSH2 0x600 JUMPI PUSH2 0x424 SWAP1 CALLDATASIZE SWAP1 DUP4 ADD PUSH2 0x68B JUMP JUMPDEST SWAP4 PUSH1 0x44 CALLDATALOAD SWAP1 DUP2 GT PUSH2 0x600 JUMPI PUSH2 0x43C SWAP1 CALLDATASIZE SWAP1 DUP4 ADD PUSH2 0x68B JUMP JUMPDEST SWAP4 CALLER DUP7 MSTORE PUSH1 0x20 SWAP2 DUP7 DUP4 MSTORE DUP4 DUP8 KECCAK256 PUSH2 0x471 DUP4 DUP7 MLOAD DUP7 DUP2 DUP11 MLOAD SWAP6 DUP3 DUP13 ADD SWAP7 PUSH2 0x463 DUP2 DUP5 DUP11 PUSH2 0x725 JUMP JUMPDEST DUP3 ADD SWAP1 DUP2 MSTORE SUB ADD SWAP1 KECCAK256 PUSH2 0x8A1 JUMP JUMPDEST CALLER DUP9 MSTORE PUSH1 0x1 DUP1 DUP6 MSTORE PUSH2 0x492 DUP9 DUP8 DUP12 KECCAK256 DUP8 DUP10 MLOAD DUP1 SWAP3 DUP13 MLOAD PUSH2 0x463 DUP2 DUP5 DUP12 PUSH2 0x725 JUMP JUMPDEST DUP9 SWAP2 DUP3 DUP3 JUMPDEST PUSH2 0x5A8 JUMPI JUMPDEST POP POP POP ISZERO PUSH2 0x509 JUMPI JUMPDEST POP DUP3 PUSH2 0x4F4 PUSH32 0x4173845D038F43D42FE1AC8689F7D3E5CEC8A2B2F643897E8A472F0CA3EFEBB8 SWAP6 SWAP4 PUSH2 0x503 SWAP4 PUSH2 0x4E7 SWAP7 MLOAD SWAP7 DUP8 SWAP7 PUSH1 0x60 DUP9 MSTORE PUSH1 0x60 DUP9 ADD SWAP1 PUSH2 0x748 JUMP JUMPDEST SWAP2 DUP7 DUP4 SUB SWAP1 DUP8 ADD MSTORE PUSH2 0x748 JUMP JUMPDEST SWAP1 DUP4 DUP3 SUB SWAP1 DUP5 ADD MSTORE CALLER SWAP6 PUSH2 0x748 JUMP JUMPDEST SUB SWAP1 LOG2 DUP1 RETURN JUMPDEST CALLER DUP8 MSTORE PUSH1 0x2 DUP4 MSTORE DUP4 DUP8 KECCAK256 DUP1 SLOAD SWAP1 PUSH9 0x10000000000000000 DUP3 LT ISZERO PUSH2 0x595 JUMPI SWAP1 PUSH2 0x537 SWAP2 PUSH1 0x1 DUP3 ADD DUP2 SSTORE PUSH2 0x9B4 JUMP JUMPDEST SWAP2 SWAP1 SWAP2 PUSH2 0x583 JUMPI POP SWAP3 PUSH2 0x4F4 DUP6 SWAP4 PUSH2 0x503 SWAP4 PUSH2 0x577 PUSH32 0x4173845D038F43D42FE1AC8689F7D3E5CEC8A2B2F643897E8A472F0CA3EFEBB8 SWAP9 PUSH2 0x4E7 SWAP9 PUSH2 0x8A1 JUMP JUMPDEST SWAP4 POP SWAP4 SWAP6 POP POP SWAP3 PUSH2 0x4A5 JUMP JUMPDEST PUSH4 0x4E487B71 PUSH1 0xE0 SHL DUP9 MSTORE DUP8 SWAP1 MSTORE PUSH1 0x24 DUP8 REVERT JUMPDEST PUSH4 0x4E487B71 PUSH1 0xE0 SHL DUP10 MSTORE PUSH1 0x41 DUP4 MSTORE PUSH1 0x24 DUP10 REVERT JUMPDEST CALLER DUP12 MSTORE PUSH1 0x2 DUP8 MSTORE DUP8 DUP12 KECCAK256 DUP1 SLOAD DUP3 LT ISZERO PUSH2 0x5FA JUMPI PUSH2 0x5D7 PUSH2 0x5CB DUP4 PUSH2 0x12C SWAP4 PUSH2 0x9B4 JUMP JUMPDEST POP DUP11 MLOAD SWAP3 DUP4 DUP1 SWAP3 PUSH2 0x7A7 JUMP JUMPDEST DUP8 DUP2 MLOAD SWAP2 ADD KECCAK256 DUP10 MLOAD DUP4 KECCAK256 EQ PUSH2 0x5EE JUMPI DUP3 ADD DUP3 PUSH2 0x497 JUMP JUMPDEST POP POP SWAP1 POP DUP9 DUP1 DUP1 PUSH2 0x49C JUMP JUMPDEST POP PUSH2 0x49C JUMP JUMPDEST DUP6 DUP1 REVERT JUMPDEST DUP4 SWAP1 DUP6 CALLVALUE PUSH2 0x377 JUMPI PUSH1 0x20 CALLDATASIZE PUSH1 0x3 NOT ADD SLT PUSH2 0x377 JUMPI PUSH1 0x20 SWAP3 PUSH1 0x1 PUSH1 0x1 PUSH1 0xA0 SHL SUB PUSH2 0x62B PUSH2 0x638 JUMP JUMPDEST AND DUP2 MSTORE PUSH1 0x2 DUP5 MSTORE KECCAK256 SLOAD DUP2 MSTORE RETURN JUMPDEST PUSH1 0x4 CALLDATALOAD SWAP1 PUSH1 0x1 PUSH1 0x1 PUSH1 0xA0 SHL SUB DUP3 AND DUP3 SUB PUSH2 0x64E JUMPI JUMP JUMPDEST PUSH1 0x0 DUP1 REVERT JUMPDEST SWAP1 PUSH1 0x1F DUP1 NOT SWAP2 ADD AND DUP2 ADD SWAP1 DUP2 LT PUSH8 0xFFFFFFFFFFFFFFFF DUP3 GT OR PUSH2 0x675 JUMPI PUSH1 0x40 MSTORE JUMP JUMPDEST PUSH4 0x4E487B71 PUSH1 0xE0 SHL PUSH1 0x0 MSTORE PUSH1 0x41 PUSH1 0x4 MSTORE PUSH1 0x24 PUSH1 0x0 REVERT JUMPDEST DUP2 PUSH1 0x1F DUP3 ADD SLT ISZERO PUSH2 0x64E JUMPI DUP1 CALLDATALOAD SWAP1 PUSH8 0xFFFFFFFFFFFFFFFF DUP3 GT PUSH2 0x675 JUMPI PUSH1 0x40 MLOAD SWAP3 PUSH2 0x6C0 PUSH1 0x1F DUP5 ADD PUSH1 0x1F NOT AND PUSH1 0x20 ADD DUP6 PUSH2 0x653 JUMP JUMPDEST DUP3 DUP5 MSTORE PUSH1 0x20 DUP4 DUP4 ADD ADD GT PUSH2 0x64E JUMPI DUP2 PUSH1 0x0 SWAP3 PUSH1 0x20 DUP1 SWAP4 ADD DUP4 DUP7 ADD CALLDATACOPY DUP4 ADD ADD MSTORE SWAP1 JUMP JUMPDEST SWAP1 PUSH1 0x40 PUSH1 0x3 NOT DUP4 ADD SLT PUSH2 0x64E JUMPI PUSH1 0x4 CALLDATALOAD PUSH1 0x1 PUSH1 0x1 PUSH1 0xA0 SHL SUB DUP2 AND DUP2 SUB PUSH2 0x64E JUMPI SWAP2 PUSH1 0x24 CALLDATALOAD SWAP1 PUSH8 0xFFFFFFFFFFFFFFFF DUP3 GT PUSH2 0x64E JUMPI PUSH2 0x722 SWAP2 PUSH1 0x4 ADD PUSH2 0x68B JUMP JUMPDEST SWAP1 JUMP JUMPDEST PUSH1 0x0 JUMPDEST DUP4 DUP2 LT PUSH2 0x738 JUMPI POP POP PUSH1 0x0 SWAP2 ADD MSTORE JUMP JUMPDEST DUP2 DUP2 ADD MLOAD DUP4 DUP3 ADD MSTORE PUSH1 0x20 ADD PUSH2 0x728 JUMP JUMPDEST SWAP1 PUSH1 0x20 SWAP2 PUSH2 0x761 DUP2 MLOAD DUP1 SWAP3 DUP2 DUP6 MSTORE DUP6 DUP1 DUP7 ADD SWAP2 ADD PUSH2 0x725 JUMP JUMPDEST PUSH1 0x1F ADD PUSH1 0x1F NOT AND ADD ADD SWAP1 JUMP JUMPDEST SWAP1 PUSH1 0x1 DUP3 DUP2 SHR SWAP3 AND DUP1 ISZERO PUSH2 0x79D JUMPI JUMPDEST PUSH1 0x20 DUP4 LT EQ PUSH2 0x787 JUMPI JUMP JUMPDEST PUSH4 0x4E487B71 PUSH1 0xE0 SHL PUSH1 0x0 MSTORE PUSH1 0x22 PUSH1 0x4 MSTORE PUSH1 0x24 PUSH1 0x0 REVERT JUMPDEST SWAP2 PUSH1 0x7F AND SWAP2 PUSH2 0x77C JUMP JUMPDEST DUP1 SLOAD PUSH1 0x0 SWAP4 SWAP3 PUSH2 0x7B6 DUP3 PUSH2 0x76D JUMP JUMPDEST SWAP2 DUP3 DUP3 MSTORE PUSH1 0x20 SWAP4 PUSH1 0x1 SWAP2 PUSH1 0x1 DUP2 AND SWAP1 DUP2 PUSH1 0x0 EQ PUSH2 0x81E JUMPI POP PUSH1 0x1 EQ PUSH2 0x7DD JUMPI JUMPDEST POP POP POP POP POP JUMP JUMPDEST SWAP1 SWAP4 SWAP5 SWAP6 POP PUSH1 0x0 SWAP3 SWAP2 SWAP3 MSTORE DUP4 PUSH1 0x0 KECCAK256 SWAP3 DUP5 PUSH1 0x0 SWAP5 JUMPDEST DUP4 DUP7 LT PUSH2 0x80A JUMPI POP POP POP POP ADD ADD SWAP1 CODESIZE DUP1 DUP1 DUP1 DUP1 PUSH2 0x7D6 JUMP JUMPDEST DUP1 SLOAD DUP6 DUP8 ADD DUP4 ADD MSTORE SWAP5 ADD SWAP4 DUP6 SWAP1 DUP3 ADD PUSH2 0x7F2 JUMP JUMPDEST PUSH1 0xFF NOT AND DUP7 DUP6 ADD MSTORE POP POP POP SWAP1 ISZERO ISZERO PUSH1 0x5 SHL ADD ADD SWAP2 POP CODESIZE DUP1 DUP1 DUP1 DUP1 PUSH2 0x7D6 JUMP JUMPDEST PUSH1 0x20 DUP1 DUP3 ADD SWAP1 PUSH1 0x20 DUP4 MSTORE DUP4 MLOAD DUP1 SWAP3 MSTORE PUSH1 0x40 DUP4 ADD SWAP3 PUSH1 0x20 PUSH1 0x40 DUP5 PUSH1 0x5 SHL DUP4 ADD ADD SWAP6 ADD SWAP4 PUSH1 0x0 SWAP2 JUMPDEST DUP5 DUP4 LT PUSH2 0x873 JUMPI POP POP POP POP POP POP SWAP1 JUMP JUMPDEST SWAP1 SWAP2 SWAP3 SWAP4 SWAP5 SWAP6 DUP5 DUP1 PUSH2 0x891 PUSH1 0x1 SWAP4 PUSH1 0x3F NOT DUP7 DUP3 SUB ADD DUP8 MSTORE DUP11 MLOAD PUSH2 0x748 JUMP JUMPDEST SWAP9 ADD SWAP4 ADD SWAP4 ADD SWAP2 SWAP5 SWAP4 SWAP3 SWAP1 PUSH2 0x863 JUMP JUMPDEST SWAP2 SWAP1 SWAP2 DUP3 MLOAD PUSH8 0xFFFFFFFFFFFFFFFF DUP2 GT PUSH2 0x675 JUMPI PUSH2 0x8BF DUP3 SLOAD PUSH2 0x76D JUMP JUMPDEST PUSH1 0x1F DUP2 GT PUSH2 0x96A JUMPI JUMPDEST POP PUSH1 0x20 DUP1 PUSH1 0x1F DUP4 GT PUSH1 0x1 EQ PUSH2 0x905 JUMPI POP DUP2 SWAP3 SWAP4 SWAP5 PUSH1 0x0 SWAP3 PUSH2 0x8FA JUMPI JUMPDEST POP POP DUP2 PUSH1 0x1 SHL SWAP2 PUSH1 0x0 NOT SWAP1 PUSH1 0x3 SHL SHR NOT AND OR SWAP1 SSTORE JUMP JUMPDEST ADD MLOAD SWAP1 POP CODESIZE DUP1 PUSH2 0x8E4 JUMP JUMPDEST SWAP1 PUSH1 0x1F NOT DUP4 AND SWAP6 DUP5 PUSH1 0x0 MSTORE PUSH1 0x20 PUSH1 0x0 KECCAK256 SWAP3 PUSH1 0x0 SWAP1 JUMPDEST DUP9 DUP3 LT PUSH2 0x952 JUMPI POP POP DUP4 PUSH1 0x1 SWAP6 SWAP7 SWAP8 LT PUSH2 0x939 JUMPI JUMPDEST POP POP POP DUP2 SHL ADD SWAP1 SSTORE JUMP JUMPDEST ADD MLOAD PUSH1 0x0 NOT PUSH1 0xF8 DUP5 PUSH1 0x3 SHL AND SHR NOT AND SWAP1 SSTORE CODESIZE DUP1 DUP1 PUSH2 0x92F JUMP JUMPDEST DUP1 PUSH1 0x1 DUP6 SWAP7 DUP3 SWAP5 SWAP7 DUP7 ADD MLOAD DUP2 SSTORE ADD SWAP6 ADD SWAP4 ADD SWAP1 PUSH2 0x91A JUMP JUMPDEST PUSH1 0x0 DUP4 PUSH1 0x0 MSTORE PUSH1 0x20 PUSH1 0x0 KECCAK256 PUSH1 0x1F DUP5 ADD PUSH1 0x5 SHR DUP2 ADD SWAP3 PUSH1 0x20 DUP6 LT PUSH2 0x9AA JUMPI JUMPDEST PUSH1 0x1F ADD PUSH1 0x5 SHR ADD SWAP2 JUMPDEST DUP3 DUP2 LT PUSH2 0x99F JUMPI POP POP PUSH2 0x8C8 JUMP JUMPDEST DUP2 DUP2 SSTORE PUSH1 0x1 ADD PUSH2 0x991 JUMP JUMPDEST SWAP1 SWAP3 POP DUP3 SWAP1 PUSH2 0x988 JUMP JUMPDEST DUP1 SLOAD DUP3 LT ISZERO PUSH2 0x9CC JUMPI PUSH1 0x0 MSTORE PUSH1 0x20 PUSH1 0x0 KECCAK256 ADD SWAP1 PUSH1 0x0 SWAP1 JUMP JUMPDEST PUSH4 0x4E487B71 PUSH1 0xE0 SHL PUSH1 0x0 MSTORE PUSH1 0x32 PUSH1 0x4 MSTORE PUSH1 0x24 PUSH1 0x0 REVERT INVALID LOG2 PUSH5 0x6970667358 0x22 SLT KECCAK256 0xC8 0x4E 0x4B PUSH11 0xDA3B46314FC84E25F45A38 0xE8 0xA9 EXTCODESIZE NUMBER DUP11 INVALID MOD 0xA8 0xBD 0xC3 0xB4 0x21 0xDD MSIZE 0xEC SHL DUP13 PUSH5 0x736F6C6343 STOP ADDMOD XOR STOP CALLER "},"methodIdentifiers":{"addRecord(string,string,string)":"3f723c62","getEncryptionKey(address,string)":"132c960e","getIPFSHash(address,string)":"0f5ad785","getMyDates()":"83ecda66","getMyEncryptionKey(string)":"4ee8b5bf","getMyIPFSHash(string)":"499818b4","getUserDates(address)":"e271f84c","getUserDatesCount(address)":"054d6b64","owner()":"8da5cb5b","userDateToEncryptionKey(address,string)":"7a5c7175","userDateToIPFS(address,string)":"8cde6f7d"}}}}}